:020000040808EA
:10000000000008081C2C0808000005000A00050173
:080010000402EA0300000000F5
:100018008028080809480A4908B5884205D0094ACD
:10002800824202D0121A02F0BFFB0748074A002199
:10003800121A02F0C4FB064808BD00BF00040020E5
:100048008C2B08086804002068040020440A00205B
:10005800440A002070B501F003FB074B074C1E460D
:10006800E41AA4080025A54204D056F8253098477C
:100078000135F8E770BD00BF442B0808742B080849
:1000880000F060B808B500F0D1F8BDE8084001F00C
:10009800A9BA00F087BA00F08DBA0078B0FA80F0FB
:1000A80040097047012303707047000000000000FA
:1000B80037B50021022001F034FB022000F036F9A8
:1000C8000121022001F02DFB0A2000F02FF9002168
:1000D800022001F026FB0121062001F03BFB01F084
:1000E80033FE13A3D3E9002301F0A4FE0022124B30
:1000F80001F0A0FE0D46044601F084F90F4900F016
:10010800FDFD01F07FF90223009322462B4600F003
:100118000FFF002200232046294602F007F910B9F4
:100128002046294601E00649002003B030BD00BF43
:10013800CC5D4BC8073D8B3F0000E03F9428080882
:100148000000F0BF08B50021062001F0D9FA01210E
:10015800022001F0D5FA00F0F1F8014B186008BD53
:100168007004002038B5046805467CB16368013B1B
:1001780063605BB9236820469B689847A368013B86
:10018800A3601BB923682046DB689847284638BD1A
:1001980070B516461D4688B0204C062300930246CB
:1001A8000B4604A800F0FAFF2378049A1C498DF83E
:1001B800003002A83C2300F095FB03A8FFF7D2FF0C
:1001C80004A800F059FF31460A2204A800F0BFFF36
:1001D8002378049A13498DF8003002A83C2300F0D4
:1001E80081FB03A8FFF7BEFF04A800F045FF2946DE
:1001F8000A2204A800F0ABFF2378049A0A498DF874
:10020800003002A83C2300F06DFB03A8FFF7AAFF0B
:1002180004A800F031FF08B070BD00BF6C040020D6
:10022800A8280808B1280808B728080870B58CB0AD
:1002380000F084F8294D2C68844212D201F0E2F8CB
:10024800274900F05BFD00F079F800F55B2000F528
:100258003A602860FFF72CFF01230022FFF798FF80
:1002680037E000F06BF8241A01F0CCF81D49054678
:1002780004A800F048FF4EF660210A22B4FBF1F111
:10028800684600F077FF694604A800F0B4FF1649F5
:1002980000F0BDFF4FF47A71B4FBF1F43C23B4FBDA
:1002A800F3F1064603FB11410A2208A800F062FF99
:1002B80008A9304600F09FFF0168284600F031FD8C
:1002C80008A800F0D9FE684600F0D6FE04A800F0A1
:1002D800D3FE642000F08EF90CB070BD70040020CD
:1002E800BD280808D8280808ED280808024B01226C
:1002F8001A7000F02BB800BF6C04002008B5024B40
:100308001B681B6B019308BDD001040808B5024B9C
:100318001B68DB6E019308BDB801040808B5024BE1
:100328001B685B68019308BD9C01040808B5024B73
:100338001B68DB68019308BD9C01040808B5024BE3
:100348001B685B69019308BD9C01040808B5024B52
:100358001B681B68019308BDB001040808B5024B6F
:100368001B689B68019308BDB001040808B5024BDF
:100378001B68DB68019308BDB001040808B5024B8F
:100388001B681B69019308BDB001040808B5024B3E
:100398001B68DB6C019308BDB001040808B5024B6B
:1003A8001B681B6A019308BDAC01040808B5024B21
:1003B8001B685B6A019308BDAC01040808B5024BD1
:1003C8001B689B6A019308BDAC01040808B5024B81
:1003D8001B68DB6A019308BDAC01040808B5024B31
:1003E8001B681B6B019308BDAC01040808B5024BE0
:1003F8001B685B6B019308BDAC01040808B5024B90
:100408001B681B6C019308BDAC01040808B5024BBE
:100418001B68DB69019308BDB401040808B5024BE9
:100428001B681B6A019308BDB401040808B5024B98
:100438001B689B69019308BDC401040808B5024BF9
:100448001B685B6A019308BDC401040808B5024B28
:100458001B689B6A019308BDC401040808B5024BD8
:100468001B68DB6A019308BDC401040808B5024B88
:100478001B681B6B019308BDC401040808B5024B37
:100488001B685B6B019308BDC401040808B5024BE7
:100498001B689B6B019308BDC401040808B5024B97
:1004A8001B681B6C019308BDC401040808B5024B06
:1004B8001B681B68019308BD1C00060808B5024BA1
:1004C8001B681B69019308BD1C00060808B5024B90
:1004D8001B685B69019308BD1C00060808B5024B40
:1004E8001B689B69019308BD1C00060808B5024BF0
:1004F8001B68DB69019308BD1C00060808B5024BA0
:100508001B681B6A019308BD1C00060808B5024B4E
:100518001B685B68019308BDA401040808B5024B79
:100528001B685B69019308BDA401040808B5024B68
:100538001B68DB6C019308BDA401040808B5024BD5
:100548001B685B6D019308BDA401040808B5034B43
:100558001B68D3F89030019308BD0000A40104087B
:1005680008B5034B1B68D3F89C30019308BD000005
:10057800A401040808B5024B1B681B6A019308BD57
:10058800CC01040808B5024B1B68DB6B019308BD5E
:10059800CC01040808B5024B1B681B69019308BD10
:1005A800C801040808B5024B1B681B68019308BD05
:1005B800A001040808B5024B1B685B68019308BDDD
:1005C800A001040808B5024B1B689B68019308BD8D
:1005D800A001040808B5024B1B68DB6A019308BD3B
:1005E800A001040808B5024B1B681B6B019308BDEA
:1005F800A00104080021FFF791BF10B583680446E5
:100608000BB901F014F9C3689847A3681BB103221A
:100618002146204698472046BDE81040FFF73BBDDD
:10062800002211461046FFF7B5BF000038B50B4C45
:1006380028252A460021204602F0C1F84FF0FF3352
:1006480063602580064C074B20462C2540F8043B68
:100658002A46002102F0B3F8A58038BDA404002082
:1006680074040020F828080870470020704710B567
:100678000446FFF710FD204610BD08B508B1FFF786
:10068800F6FF08BD10B58368044613B1032201467E
:100698009847204610BD38B5C468D4B12378022BDA
:1006A80002D1E068FFF786FF65682DB12846FFF79D
:1006B800E9FF2846FFF7EFFCA5682DB12846FFF7AC
:1006C800E1FF2846FFF7E7FC2046BDE83840FFF782
:1006D800E2BC38BD13B5044691E8050000234B6021
:1006E8000B602060626001A801930093FFF73AFD58
:1006F800204602B010BD0B68036013B15A6801327E
:100708005A607047F7B50C4606460F4654F8043B46
:1007180002AD45F8083D214601A8FFF7ECFF294640
:100728003046FFF7D7FF01A8FFF71CFD2046FFF76B
:1007380019FD3846FFF7AFFC304603B0F0BD13B5DE
:100748000B46044603C88DE8030093E8030084E8D9
:1007580003009DE8030083E8030002B010BD82682F
:1007680010B50AB901F063F8C368BDE8104018472E
:1007780008B5006800F11001FFF7F1FF08BD8268B5
:1007880010B50AB901F053F8C368BDE8104018471E
:1007980008B5006800F11001FFF7F1FF08BD38B592
:1007A800002383608B6804460D462BB102229847CC
:1007B800EB68E360AB68A360204638BD2DE9F041E3
:1007C8004FF69C7304684FF0020086B0B1F904201C
:1007D8008B8000230F688DF800300B60D4E84F1F22
:1007E800994203D1C4E8450F002DF7D102D08DF806
:1007F80000106BE014F10C051CBFE7602282BFF308
:100808005F8F18BF1F4601236370BFF35F8F04F12A
:100818000803002053E8006F43E80002002AF9D1DA
:10082800BFF35F8F002E51D0FFF780FE20B129461D
:100838003046FFF794FF43E031466846FFF7AFFFC5
:10084800E068B4F9105008B101F0F2FF04901020EC
:10085800ADF81450FFF71DFC054630B34FF0000803
:10086800C0F808801820FFF714FC0446C0B1C0F88F
:10087800088001466846FFF762FF029BA268A360F2
:10088800039B0292E268E360BDF814300392A382EE
:100898004FF69C73ADF81430049BCDF8108023619B
:1008A8000D4B2C60EB600D4BAB600498FFF782FE9C
:1008B8006846FFF7E7FE002229460948FFF73EFE93
:1008C8003046FFF7DFFE3046FFF7E5FB3846FFF717
:1008D80071FE06B0BDE8F08179070808D509080857
:1008E800030608082DE9F04F8BB007AD4FF0000B59
:1008F8000646994614200C230F4690469DF850A0B2
:10090800C5F804B0C5F808B00793FFF7C2FB044662
:1009180038B180F800B080F801B0C0F804B0C0F871
:1009280008B00023102003940493FFF7B2FB28B10A
:10093800012343608360234BC4600360224B04900F
:1009480008200893FFF7A5FB044628B1039B04A9D8
:1009580040F8043BFFF7CFFE00955FFA8AF34A465A
:10096800414638460994FFF705FEB8B9039B5B7802
:1009780003F0FF0293B94FF69C7305A903A80592EB
:10098800ADF81830FFF71AFF0598FFF713FE05A812
:100998000999FFF7B7FE06A8FFF7E4FB039B04A934
:1009A80006A80593FFF7A7FE05A93046FFF792FEB4
:1009B80006A8FFF7D7FB04A8FFF7D4FB30460BB017
:1009C800BDE8F08F042908083D0B0808022AF8B58D
:1009D800044606D0032A17D0012A20D10B680360E9
:1009E8001DE018200E68FFF754FB054650B131464C
:1009F800FFF7D5FE3069B6F9147008B101F018FF99
:100A08002861AF8225600AE0046844B12069FFF7D5
:100A1800D1FD2046FFF736FE2046FFF73CFB0020BD
:100A2800F8BD38B5002383608B6804460D462BB1AA
:100A380002229847EB68E360AB68A360204638BDA4
:100A4800022A70B5044606D0032A11D0012A17D10C
:100A58000B68036014E014200E68FFF71AFB0546C4
:100A680020B13146FFF7DDFF337C2B74256007E0AA
:100A780004682CB12046FFF705FE2046FFF70BFB64
:100A8800002070BDF0B50C46BFF35F8F87B0002320
:100A980050E8006F40E80032002AF9D1BFF35F8FB9
:100AA800002E3ED01846FFF741FD074620B12146EB
:100AB8003046FFF764FE2EE0314601A8FFF7B1FF8C
:100AC800237810208DF81430FFF7E3FA0546D0B1EB
:100AD80087601420FFF7DDFA044678B18760014685
:100AE80001A8FFF72CFE039BA268A360049B039256
:100AF800E268E3609DF81430049223740A4B2C607A
:100B0800EB600A4BAB6001A8FFF7BCFD0022294649
:100B18000748FFF713FD3046FFF7B4FD3046FFF7EF
:100B2800BAFA07B0F0BD00BF99070808490A0808D3
:100B38000306080830B5044685B00D4668461146D8
:100B4800FFF7E0FD7CB124B228460DB101F070FE3C
:100B5800029002A96846ADF80C40FFF72FFE0298F4
:100B6800FFF728FD1DE04FF0010200988DF80840BE
:100B7800D0E84F3FA34203D1C0E8412F0029F7D165
:100B880002D08DF808300CE010F10C014FF0010391
:100B980018BF0373BFF35F8F043000F8033CFFF7FF
:100BA80071FF01A8FFF7DEFA05B030BD7047F8B550
:100BB800064615460C468F18BC4206D0336814F812
:100BC800011B9B6830469847F6E72846F8BD002287
:100BD800007CFFF7E3BB0021007CFFF7E7BB0021A7
:100BE800007CFFF7EBBB0021007CFFF7EFBB002187
:100BF800007CFFF7F3BB10B50446FFF74CFA20461C
:100C080010BD000010B5044608464FF47A73A3607F
:100C1800044B0021207461602360FFF7EFFB20463E
:100C280010BD00BF202908080021007CFFF7DEBBAB
:100C3800704710B50446FFF72EFA204610BDF8B5E8
:100C48000F4600F10806051D002416F8011D0A22AA
:100C5800384600F09AF8AE42044407D0002CF4D08D
:100C68002E21384600F04EF80444EEE72046F8BD41
:100C780010B59DF8084044EA032343EA024242EAD9
:100C88000161416010BD000037B5044D05609DF855
:100C980018500095FFF7ECFF03B030BD482908084D
:100CA800014A024B1A6070470D2A0808CC0400203C
:100CB800F8B506460D468F180024BD420CD033689F
:100CC80015F8011B9B6830469847002801DB04444F
:100CD800F3E7002C08BF04462046F8BD70B505466A
:100CE8000C46084649B101F0BEFD2B680246214674
:100CF8002846BDE87040DB68184770BD08B5FFF7A7
:100D0800EDFF08BD03689B68184738B50D210546F7
:100D1800FFF7F8FF0A2104462846FFF7F3FF2044AF
:100D280038BD38B50546FFF7D9FF04462846FFF712
:100D3800ECFF204438BD012A98BF0A2230B50B4683
:100D48008BB000218DF824100DF12304B3FBF2F5CC
:100D580005FB1233DBB2092B94BF30333733DBB2D8
:100D6800214604F801392B46002DEFD1FFF7B6FFD5
:100D78000BB030BD10B422B90368C9B29B6810BC6F
:100D88001847D2B210BCFFF7D6BFFFF7F3BF2DE963
:100D9800F04107460E4615462AB9BDE8F0410368FA
:100DA800C9B29B6818470A2A02D1002901DA04E06F
:100DB800D2B2BDE8F041FFF7BEBF2D21FFF7A2FF79
:100DC8002A46044671423846FFF7B5FF2044BDE87D
:100DD800F08100002DE9F843194680461046174671
:100DE8001E469DF8205001F0BFFA08B1474912E0AD
:100DF80026F000444FF0FF32454B3846214601F0BB
:100E0800B3FA68B94FF0FF32414B3846214601F03A
:100E18008DFA28B93F494046FFF760FFBDE8F883DF
:100E28004FF060423C4B3846314601F093FA08B126
:100E38003A49F0E74FF06042394B3846314601F005
:100E48006BFA0028F4D1002200233846314601F01D
:100E580063FA38B12D214046FFF754FF06F10046EA
:100E6800044600E004462F494FF0000900205FFACD
:100E780089F39D4206D900222B4B01F005F909F1AF
:100E88000109F4E73A46334600F022FE0F460646CB
:100E980001F0A8FA0A22014681464046FFF74BFFB7
:100EA80004447DB3484600F04FFF02460B463046E7
:100EB800394600F00BFE06460F4640461B49FFF731
:100EC8000DFF0444184B00223046394600F0B2FFAB
:100ED8000F46064601F05EFA0A2201468146404660
:100EE800FFF755FF0444484600F03EFF02460B4614
:100EF8003046394600F0EAFD013D15F0FF0506468B
:100F08000F46DFD12046BDE8F88300BF362A08081F
:100F1800FFFFEF7F3E2A0808FFFFEF413A2A080843
:100F2800FFFFEFC10000E03F00002440D62808087A
:100F380037B59DF8181005460091FFF74BFF04469A
:100F48002846FFF7E2FE204403B030BD10B5044642
:100F5800FFF798FB204610BD034800238360034A2F
:100F6800034900F05FBC00BFD004002068040020E3
:100F7800550F0808704710B50446FFF78CF820464F
:100F880010BD000070B504460E46074B00250360EF
:100F980040F80C5FFFF7B2F930462671FFF736FAD2
:100FA800A560204670BD00BF4C2A08080079FFF7ED
:100FB80035BA00002DE9F14F80460D4617461E460A
:100FC800002200234046294601F0A6F920B12D232E
:100FD800337005F100450136002301240A22D9B2F5
:100FE8008F4202D954430133F9E7204600F0BCFE92
:100FF80042462B4600F01EFF82468B4601F02AFA35
:101008008046894600F0E0FE02460B4650465946A7
:1010180000F05CFD0022174B01F092F918B118F1AD
:10102800010849F10009E51722462B464046494682
:1010380001F0F8F901230A22314600F056FAAFB15F
:10104800304601F010FC2E2333540130064422466A
:101058002B464046494601F0E5F93B4610463146E5
:101068000A2201B0BDE8F04F00F03FBA01B0BDE878
:10107800F08F00BF0000E03F10B504460068FFF79E
:1010880099FA204610BD10B50446006808B1FFF76C
:1010980091FA00232360A360636010BD38B504464D
:1010A8000D4600680131FFF78DFA10B184E8210080
:1010B800012038BD10B50368044613B143688B425C
:1010C80007D22046FFF7EAFF20B1A3680BB92268D0
:1010D8001370012010BD70B50E4611460446154622
:1010E800FFF7E8FF18B92046FFF7CDFF09E02A46C9
:1010F8003146A560206801F057FB2268A3680021EB
:10110800D154204670BD38B50023044603604360BF
:10111800836003730D4639B1084601F0A4FB2946E4
:1011280002462046FFF7D7FF204638BD38B50546AA
:101138000C4641B1084601F096FB21460246284676
:10114800FFF7C9FF01E0FFF79EFF284638BD10B53D
:10115800044600238AB023606360A36023730846B3
:1011680001A900F0EAF901A92046FFF7DFFF2046B0
:101178000AB010BD10B504468AB00023236063602E
:10118800A36023730846012301A900F0AEF901A961
:101198002046FFF7CBFF20460AB010BD10B5044625
:1011A8008AB019460023104623606360A360237346
:1011B8009DF8302001ABFFF7FDFE01A92046FFF79F
:1011C800B5FF20460AB010BD70B504460E4609B9F1
:1011D800002070BD6AB18368D5182946FFF76AFFF9
:1011E8000028F5D02068A3683146184401F018FBA0
:1011F800A560012070BD10B58A6809680446FFF72C
:10120800E3FF10B92046FFF73EFF204610BD38B572
:1012180004460D4641B1084601F025FB2946024621
:101228002046FFF7D1FF10B92046FFF72CFF2046D4
:1012380038BD00004FF69C7337B50D4C0025638010
:101248004FF6FF732846A3802570FFF75FF902A8C1
:1012580040F8045D2A462946FFF758F8019B1E2BE3
:1012680004D10323237011236580A38003B030BD0C
:10127800E0040020024B1A68024B1A60704700BF56
:1012880000040020E8040020704741747047007C87
:10129800FFF704B9007CFFF7D9B8007CFFF7E6B880
:1012A800007CFFF7DBB8007CFFF7E8B810B5044610
:1012B800FEF7F1FE204610BD70B5457C04460E468B
:1012C80025B9007CFFF7EAF8002805DD3146207CC7
:1012D800BDE87040FFF7B2B8284670BD10B50446A7
:1012E80008461146002262604FF47A72A260054AED
:1012F80020742260012262741A46FFF797F820468C
:1013080010BD00BF882A0808007CFFF7BFB800009E
:1013180038B50C4D296811F0010411D12846FEF7A3
:10132800BCFE68B1084A2146084B0948FFF7D6FFBA
:101338002846FEF7B7FE074A0749054800F072FA43
:10134800034838BD840500208805002000050020DA
:10135800EC040020680400209112080841747047CA
:1013680070470021007CFFF7B9B80121007CFFF726
:10137800B5B8007CFFF7AAB8007CFFF79FB838B56E
:101388000446007C0D46FFF7A1F8002801DC607CCC
:1013980020B12946207CFFF7A9F8012038BD007C40
:1013A800FFF7ACB810B50446FEF775FE204610BD31
:1013B80010B50446002363604FF47A73A360054BAD
:1013C800084623600123217463741146FFF76EF801
:1013D800204610BDB82A080810B50446142200217A
:1013E80001F0EDF9054B20466360054BE36040F2E0
:1013F800011323818123238210BD00BF91060020A1
:101408001006002030B50E4D87B001A8FFF7E4FFA5
:10141800296811F0010410D12846FEF73EFE60B19C
:1014280001AA21460748FFF7C3FF2846FEF73AFE00
:10143800054A0649034800F0F5F9024807B030BDEF
:101448000C0600209407002068040020691308088F
:1014580010B504461422002101F0B1F9054B2046CD
:101468006360054BE36040F20113238181232382EB
:1014780010BD00BF44080020AC07002010B50E4C7A
:1014880086B001A8FFF7E4FF2368DB0710D42046E5
:10149800FEF703FE60B101AA01210848FFF788FFA3
:1014A8002046FEF7FFFD064A0649044800F0BAF94F
:1014B800024806B010BD00BFA80700203008002071
:1014C800680400206913080810B5044601F0CBF938
:1014D800013823182046984206D20278197800F875
:1014E800011B03F80129F6E710BD70B50C46911EE3
:1014F800222920D82546294610B9234430220EE057
:10150800B0FBF2F602FB1600C1B2092805F8011B70
:1015180094BF3031573105F8011C3046EBE799424A
:1015280002D201F8012BFAE7002320460B70FFF7DF
:10153800CBFF204670BD002070BD38B5031E0C4699
:1015480015460BDAB3F1004F4FF02D0214BF584285
:10155800184601230A702A46194400E00123FFF7C0
:10156800C4FF204638BD000008B5184B33B1FFF75B
:1015780049FF03681B69984700281EDC144B33B1E8
:10158800FFF7C6FE03681B699847002818DC114B53
:101598000BB1AFF30080104B0BB1AFF300800F4BD2
:1015A8000BB1AFF300800E4B7BB1FFF767FF036809
:1015B8001B699847002806DC08BDAFF30080DDE70B
:1015C800AFF30080E3E7AFF3008008BD0000000040
:1015D8000000000000000000000000000000000003
:1015E8000000000008B5FFF7BFFFFEF7A7FE014B9C
:1015F800186008BD500900200248034A0349121A1E
:1016080001F0D2B80040024004400240882B08088C
:1016180007B5002300931A466FF07701FEF7A0FF85
:1016280003B05DF804FB000007B543880A2B08D017
:10163800502B09D1094B1B683BB103B05DF804EB93
:101648001847FFF7E5FF06E0002300931A466FF0FE
:101658007701FEF785FF03B05DF804FB4809002019
:1016680038B5104C104D2368AB42104B0CBF01220B
:1016780000221A7002D0FFF7BFFF2560FEF74EFE6A
:1016880001F0A6F80A4B1BB1FEF748FEAFF3008045
:1016980000210748FEF776FFBDE8384000210548DD
:1016A800FEF754BF004002401E1C279A4C09002038
:1016B800000000003116080810B504460F48FFF76F
:1016C80075FC28B1A4F10D03022B01D8002010BD30
:1016D80000F042F8FFF7A8FA08B1012CF6D9FFF795
:1016E80017FEFFF711FE18B1A4F11203012BEDD973
:1016F8002E2C8CBF0020012010BD00BF74090020D3
:101708002E2838B504460D460AD8FF2908D0FFF719
:10171800D3FF28B129462046BDE83840FEF71EBE53
:1017280038BD38B504460D46FEF720FEFF2810D018
:10173800062804D84D2323FA00F0C30709D420460D
:10174800FFF7BAFF28B129462046BDE83840FEF722
:1017580015BE38BDFEF71ABE38B50B4D296811F015
:1017680001040FD12846FEF798FC58B121460748D6
:10177800FFF748FA2846FEF795FC054A054903484D
:1017880000F050F8014838BD5409002058090020DD
:1017980068040020B50B080813B5084C00231A4646
:1017A800194600932046FFF76FFA2046044A054978
:1017B80002B0BDE8104000F035B800BF6C09002049
:1017C80068040020390C080870B5114E114D124CF0
:1017D80000213046FFF7D6FB3046104E2A462146F8
:1017E80000F020F801213046FFF7CCFB30460C4EC4
:1017F8002A46214600F016F802213046FFF7C2FBC0
:101808002A4621463046BDE8704000F00BB800BFBC
:1018180074090020680400207D0F0808840900204E
:10182800940900200B460146184600F0AFBF08B5E2
:10183800FEF7D0FE244B1A68D0075CBF01221A605D
:10184800224B1A68D1075CBF01221A60204B1A6824
:10185800D2075CBF01221A601E4B1A68D0075CBF12
:1018680001221A601C4B1A68D1075CBF01221A605A
:101878001A4B1A68D2075CBF01221A60184B1A6803
:10188800D0075CBF01221A60164B1A68D1075CBFEB
:1018980001221A60144B1A68D2075CBF01221A6031
:1018A800124B1A68D0075CBF01221A60104B1A68E5
:1018B800D1075CBF01221A600E4B1A68D2075CBFC1
:1018C80001221A60704700BFD0090020CC0900200F
:1018D800C8090020C4090020C0090020BC09002054
:1018E800B8090020B4090020B0090020AC09002084
:1018F800A8090020A4090020184B1A68D1075CBF6A
:1019080001221A60164B1A68D2075CBF01221A60BE
:10191800144B1A68D0075CBF01221A60124B1A6870
:10192800D1075CBF01221A60104B1A68D2075CBF4E
:1019380001221A600E4B1A68D0075CBF01221A6098
:101948000C4B1A68D1075CBF01221A600A4B1A684F
:10195800D2075CBF01221A60704700BFF00900205F
:10196800EC090020E8090020E4090020E009002033
:10197800DC090020D8090020D4090020184B1A6877
:10198800D1075CBF01221A60164B1A68D2075CBFE8
:1019980001221A60144B1A68D0075CBF01221A6032
:1019A800124B1A68D1075CBF01221A60104B1A68E3
:1019B800D2075CBF01221A600E4B1A68D0075CBFC1
:1019C80001221A600C4B1A68D1075CBF01221A6009
:1019D8000A4B1A68D2075CBF01221A60704700BF21
:1019E800100A00200C0A0020080A0020040A00201F
:1019F800000A0020FC090020F8090020F409002052
:101A0800244B1A68D0075CBF01221A60224B1A685F
:101A1800D1075CBF01221A60204B1A68D2075CBF4D
:101A280001221A601E4B1A68D0075CBF01221A6097
:101A38001C4B1A68D1075CBF01221A601A4B1A683E
:101A4800D2075CBF01221A60184B1A68D0075CBF26
:101A580001221A60164B1A68D1075CBF01221A606E
:101A6800144B1A68D2075CBF01221A60124B1A681D
:101A7800D0075CBF01221A60104B1A68D1075CBFFF
:101A880001221A600E4B1A68D2075CBF01221A6045
:101A9800704700BF400A00203C0A0020380A002096
:101AA800340A0020300A00202C0A0020280A0020CE
:101AB800240A0020200A00201C0A0020180A0020FE
:101AC800140A002081F0004102E000BF83F00043C7
:101AD80030B54FEA41044FEA430594EA050F08BFC1
:101AE80090EA020F1FBF54EA000C55EA020C7FEA85
:101AF800645C7FEA655C00F0E2804FEA5454D4EB02
:101B08005555B8BF6D420CDD2C4480EA020281EACB
:101B1800030382EA000083EA010180EA020281EA03
:101B28000303362D88BF30BD11F0004F4FEA013155
:101B38004FF4801C4CEA113102D0404261EB410164
:101B480013F0004F4FEA03334CEA133302D05242EA
:101B580063EB430394EA050F00F0A780A4F10104A6
:101B6800D5F1200E0DDB02FA0EFC22FA05F28018E0
:101B780041F1000103FA0EF2801843FA05F35941C6
:101B88000EE0A5F120050EF1200E012A03FA0EFC45
:101B980028BF4CF0020C43FA05F3C01851EBE3716F
:101BA80001F0004507D54FF0000EDCF1000C7EEB8C
:101BB80000006EEB0101B1F5801F1BD3B1F5001FCA
:101BC8000CD349085FEA30004FEA3C0C04F10104E9
:101BD8004FEA445212F5800F80F09A80BCF1004F12
:101BE80008BF5FEA500C50F1000041EB045141EA94
:101BF800050130BD5FEA4C0C404141EB010111F495
:101C0800801FA4F10104E9D191F0000F04BF01463F
:101C18000020B1FA81F308BF2033A3F10B03B3F11D
:101C280020020CDA0C3208DD02F1140CC2F10C02AD
:101C380001FA0CF021FA02F10CE002F11402D8BF0B
:101C4800C2F1200C01FA02F120FA0CFCDCBF41EAD7
:101C58000C019040E41AA2BF01EB0451294330BDA6
:101C68006FEA04041F3C1CDA0C340EDC04F1140483
:101C7800C4F1200220FA04F001FA02F340EA03005A
:101C880021FA04F345EA030130BDC4F10C04C4F1A0
:101C9800200220FA02F001FA04F340EA0300294680
:101CA80030BD21FA04F0294630BD94F0000F83F4CA
:101CB800801306BF81F480110134013D4EE77FEAAD
:101CC800645C18BF7FEA655C29D094EA050F08BFF9
:101CD80090EA020F05D054EA000C04BF19461046DA
:101CE80030BD91EA030F1EBF0021002030BD5FEA1E
:101CF800545C05D14000494128BF41F0004130BD46
:101D080014F580043CBF01F5801130BD01F0004599
:101D180045F0FE4141F470014FF0000030BD7FEA0C
:101D2800645C1ABF194610467FEA655C1CBF0B4607
:101D3800024650EA013406BF52EA033591EA030F1E
:101D480041F4002130BD00BF90F0000F04BF002116
:101D5800704730B54FF4806404F132044FF0000549
:101D68004FF0000150E700BF90F0000F04BF0021C2
:101D7800704730B54FF4806404F1320410F0004528
:101D880048BF40424FF000013EE700BF42004FEA23
:101D9800E2014FEA31014FEA02701FBF12F07F43A0
:101DA80093F07F4F81F06051704792F0000F14BF9D
:101DB80093F07F4F704730B54FF4607401F00045E1
:101DC80021F0004120E700BF50EA010208BF704738
:101DD80030B54FF000050AE050EA010208BF70472D
:101DE80030B511F0004502D5404261EB41014FF496
:101DF800806404F132045FEA915C3FF4DCAE4FF09A
:101E080003025FEADC0C18BF03325FEADC0C18BF80
:101E1800033202EBDC02C2F1200300FA03FC20FAD1
:101E280002F001FA03FE40EA0E0021FA02F114441E
:101E3800C1E600BF70B54FF0FF0C4CF4E06C1CEA33
:101E480011541DBF1CEA135594EA0C0F95EA0C0FA8
:101E580000F0DEF82C4481EA030621EA4C5123EA1B
:101E68004C5350EA013518BF52EA033541F480114A
:101E780043F4801338D0A0FB02CE4FF00005E1FBFD
:101E880002E506F00042E0FB03E54FF00006E1FB47
:101E980003569CF0000F18BF4EF0010EA4F1FF048A
:101EA800B6F5007F64F5407404D25FEA4E0E6D41CA
:101EB80046EB060642EAC62141EA55514FEAC520DB
:101EC80040EA5E504FEACE2EB4F1FD0C88BFBCF557
:101ED800E06F1ED8BEF1004F08BF5FEA500E50F108
:101EE800000041EB045170BD06F0004646EA0101CE
:101EF80040EA020081EA0301B4EB5C04C2BFD4EB00
:101F08000C0541EA045170BD41F480114FF0000EF8
:101F1800013C00F3AB8014F1360FDEBF002001F066
:101F2800004170BDC4F10004203C35DA0C341BDCE0
:101F380004F11404C4F1200500FA05F320FA04F0B2
:101F480001FA05F240EA020001F0004221F00041E6
:101F580010EBD37021FA04F642EB06015EEA430E59
:101F680008BF20EAD37070BDC4F10C04C4F1200589
:101F780000FA04F320FA05F001FA04F240EA02003C
:101F880001F0004110EBD37041F100015EEA430E0D
:101F980008BF20EAD37070BDC4F1200500FA05F22D
:101FA8004EEA020E20FA04F301FA05F243EA0203AC
:101FB80021FA04F001F0004121FA04F220EA0200BB
:101FC80000EBD3705EEA430E08BF20EAD37070BD01
:101FD80094F0000F0FD101F00046400041EB0101E1
:101FE80011F4801F08BF013CF7D041EA060195F0C3
:101FF800000F18BF704703F00046520043EB03037D
:1020080013F4801F08BF013DF7D043EA0603704769
:1020180094EA0C0F0CEA135518BF95EA0C0F0CD074
:1020280050EA410618BF52EA4306D1D181EA0301BA
:1020380001F000414FF0000070BD50EA410606BFB4
:102048001046194652EA430619D094EA0C0F02D1F9
:1020580050EA013613D195EA0C0F05D152EA03363E
:102068001CBF104619460AD181EA030101F000415C
:1020780041F0FE4141F470014FF0000070BD41F0A5
:10208800FE4141F4780170BD70B54FF0FF0C4CF47F
:10209800E06C1CEA11541DBF1CEA135594EA0C0F9E
:1020A80095EA0C0F00F0A7F8A4EB050481EA030EEB
:1020B80052EA03354FEA013100F088804FEA0333D2
:1020C8004FF0805545EA131343EA12634FEA0222A0
:1020D80045EA111545EA10654FEA00260EF0004161
:1020E8009D4208BF964244F1FD0404F5407402D2B3
:1020F8005B084FEA3202B61A65EB03055B084FEA44
:1021080032024FF480104FF4002CB6EB020E75EB40
:10211800030E22BFB61A754640EA0C005B084FEA68
:102128003202B6EB020E75EB030E22BFB61A7546E5
:1021380040EA5C005B084FEA3202B6EB020E75EB30
:10214800030E22BFB61A754640EA9C005B084FEAA8
:102158003202B6EB020E75EB030E22BFB61A7546B5
:1021680040EADC0055EA060E18D04FEA051545EAA4
:1021780016754FEA06164FEAC30343EA52734FEA4D
:10218800C2025FEA1C1CC0D111F4801F0BD141EAC6
:1021980000014FF000004FF0004CB6E711F4801F2B
:1021A80004BF01430020B4F1FD0C88BFBCF5E06F0B
:1021B8003FF6AFAEB5EB030C04BFB6EB020C5FEA1B
:1021C800500C50F1000041EB045170BD0EF0004E70
:1021D8004EEA113114EB5C04C2BFD4EB0C0541EAA2
:1021E800045170BD41F480114FF0000E013C90E69F
:1021F80045EA060E8DE60CEA135594EA0C0F08BF63
:1022080095EA0C0F3FF43BAF94EA0C0F0AD150EA61
:1022180001347FF434AF95EA0C0F7FF425AF1046F4
:1022280019462CE795EA0C0F06D152EA03353FF41C
:10223800FDAE1046194622E750EA410618BF52EA99
:1022480043067FF4C5AE50EA41047FF40DAF52EA6D
:1022580043057FF4EBAE12E74FF0FF3C06E000BF0A
:102268004FF0010C02E000BF4FF0010C4DF804CD17
:102278004FEA410C7FEA6C5C4FEA430C18BF7FEAD7
:102288006C5C1BD001B050EA410C0CBF52EA430C05
:1022980091EA030F02BF90EA020F0020704710F185
:1022A800000F91EA030F58BF994208BF90422CBF14
:1022B800D8176FEAE37040F0010070474FEA410C0D
:1022C8007FEA6C5C02D150EA013C07D14FEA430C2B
:1022D8007FEA6C5CD6D152EA033CD3D05DF8040B9C
:1022E800704700BF8446104662468C4619466346CE
:1022F80000E000BF01B5FFF7B7FF002848BF10F1A5
:10230800000F01BD4DF808EDFFF7F4FF0CBF0120E9
:1023180000205DF808FB00BF4DF808EDFFF7EAFF65
:1023280034BF012000205DF808FB00BF4DF808ED20
:10233800FFF7E0FF94BF012000205DF808FB00BF15
:102348004DF808EDFFF7CEFF94BF012000205DF89F
:1023580008FB00BF4DF808EDFFF7C4FF34BF0120AC
:1023680000205DF808FB00BF4FEA410C7FEA6C5C77
:1023780002D150EA013C0AD14FEA430C7FEA6C5C77
:1023880002D152EA033C02D14FF0000070474FF0EF
:10239800010070474FEA410212F5001215D211D51B
:1023A8006FF47873B3EB625212D94FEAC12343F04A
:1023B800004343EA505311F0004F23FA02F018BFCC
:1023C800404270474FF00000704750EA013005D195
:1023D80011F0004008BF6FF0004070474FF0000058
:1023E800704700BF4A0011D212F5001211D20DD564
:1023F8006FF47873B3EB62520ED44FEAC12343F003
:10240800004343EA505323FA02F070474FF00000AC
:10241800704750EA013002D14FF0FF3070474FF05B
:102428000000704753B94AB9002908BF00281CBFEB
:102438004FF0FF314FF0FF3000F0A6B9ADF1080CB6
:102448006DE904CE00F02AF8DDF804E0DDE90223A6
:1024580004B07047D0B500220E4B06460F46FFF772
:10246800E9FCFFF7BFFF0446FFF76EFC00220A4BAA
:10247800FFF7E0FC02460B4630463946FFF726FBDD
:10248800FFF7B0FF2346002242EA00021046194631
:10249800D0BD00BF0000F03D0000F0412DE9F04F35
:1024A8008C460C460546099E002B4FD18A4217469A
:1024B8006BD9B2FA82FEBEF1000F0BD0CEF1200527
:1024C80020FA05F501FA0EF345EA030C02FA0EF7B5
:1024D80000FA0EF5390CBCFBF1F0BAB201FB10C3DF
:1024E80000FB02F84FEA154C4CEA0344A04509D911
:1024F800E41900F1FF3380F02881A04540F22581DE
:1025080002383C44C8EB0404B4FBF1F301FB134C60
:1025180003FB02F2ACB244EA0C418A4209D9C91958
:1025280003F1FF3480F00F818A4240F20C81023BB4
:1025380039448A1A43EA00400021002E63D022FA67
:102548000EF2002386E80C00BDE8F08F8B4207D915
:10255800002E56D0002186E811000846BDE8F08F0D
:10256800B3FA83F1002940F09380A34202D3824258
:1025780000F2FE80851A64EB03039C460120002EBE
:1025880041D086E82010BDE8F08F12B90127B7FBCB
:10259800F2F7B7FA87FEBEF1000F36D1E41B4FEA17
:1025A80017481FFA87F90121B4FBF8F308FB134415
:1025B80009FB03F24FEA154C4CEA0444A24207D93E
:1025C800E41903F1FF3002D2A24200F2D38003469D
:1025D800A41AB4FBF8F008FB104809FB00F9ACB2E8
:1025E80044EA0842914507D9D21900F1FF3402D2D2
:1025F800914500F2BA802046C9EB020240EA034046
:102608009BE731463046BDE8F08F07FA0EF7CEF16A
:10261800200C24FA0CF34FEA1748B3FBF8FA1FFA18
:1026280087F908FB1A3520FA0CFC04FA0EF40AFBA9
:1026380009FB4CEA040C4FEA1C4242EA05439B455D
:1026480000FA0EF50AD9DB190AF1FF3280F08B8007
:102658009B4540F28880AAF1020A3B44CBEB030376
:10266800B3FBF8F008FB103300FB09F41FFA8CFCED
:102678004CEA03439C4207D9DB1900F1FF326ED2C2
:102688009C426CD902383B441C1B40EA0A418BE748
:10269800C1F1200E8B4022FA0EFC4CEA030C24FAFE
:1026A8000EF74FEA1C49B7FBF9FA1FFA8CF309FB3E
:1026B8001A7720FA0EF88C400AFB03F548EA04045E
:1026C8004FEA144848EA0747BD4202FA01F200FA05
:1026D80001FB09D917EB0C070AF1FF3041D2BD42C3
:1026E8003FD9AAF1020A67447F1BB7FBF9F509FB3A
:1026F800157705FB03F3A4B244EA0747BB4208D9A0
:1027080017EB0C0705F1FF3027D2BB4225D9023D54
:10271800674445EA0A40A0FB0289FF1A4F4545462F
:102728004C4614D329D066B3BBEB050367EB04070B
:1027380007FA0EFECB40CF404EEA030386E8880036
:102748000021BDE8F08F2346F3E61846DAE6B8EB39
:10275800020569EB0C040138E5E70546D9E71046A0
:1027680092E78246C0E7924678E702383A4443E760
:10277800084604E7023B3C442AE7C345E7D33C4606
:10278800D1E73146BDE8F08F704700BF10B5054C62
:1027980013462CB10A4601460220AFF3008010BD53
:1027A800204610BD0000000010B5431E0A449142A7
:1027B80004D011F8014B03F8014FF8E710BD0346A8
:1027C8000244934202D003F8011BFAE77047000065
:1027D80038B5124B05461C68A36BD3B91820FDF712
:1027E800E1FE43F20E33A06303804AF6CD33438003
:1027F80041F2342383804EF26D63C3804DF6EC635F
:102808000381052343810B23838101220023C0E92F
:102818000423A36B00221D615A6138BD64040020A3
:10282800034611F8012B03F8012B002AF9D1704750
:10283800024B0146186800F003B800BF640400208A
:1028480070B5064608460C4600F00DF8451C2946AA
:102858003046FDF7C7FE064618B12A462146FFF75F
:10286800A3FF304670BD034613F8012B002AFBD1A5
:10287800181A0138704700001D0008085D00080894
:10288800890008088D000808000000004469737476
:10289800616E6365204D656173757265643A2000E9
:1028A80064697374616E636500636F756E74006448
:1028B80065627567004C6F6767696E6720616E6453
:1028C80020706F7374696E6720646174612E2E00C6
:1028D8004C6F6767696E6720696E20286D696E3A6C
:1028E80073656329003A0000000000000000000042
:1028F800290608080000000000000000710608080A
:10290800770608089F06080883060808730608085B
:102918000000000000000000B50B0808FF0B0808C5
:10292800D70B0808B70B0808DF0B0808E70B0808DF
:10293800EF0B0808F70B0808000000000000000073
:10294800470C0808390C08083B0C08086C6E006630
:102958006E00636F64650064657461696C000D0ADC
:1029680000253031307520005D20002564002C20C2
:102978000028293A2000205B00636F6465203D2011
:102988000025690064657461696C73203D200062EC
:102998006175640053657269616C005553425365F3
:1029A8007269616C31007479706500706172616D73
:1029B80000636D6400696400686E64007374726D0E
:1029C8000066696C74006C766C0061646448616EC2
:1029D800646C65720072656D6F766548616E646CD3
:1029E800657200656E756D48616E646C6572730022
:1029F8004A534F4E53747265616D4C6F6748616EF0
:102A0800646C657200617070006E6F6E6500747240
:102A180061636500696E666F007761726E0065724A
:102A2800726F720070616E696300616C6C006E6138
:102A38006E006F766600696E660000000000000098
:102A4800000000007D0F08087F0F08085A00252B9A
:102A58003033643A253032750025592D256D2D25E2
:102A6800645425483A254D3A2553257A0061736305
:102A780074696D650000000000000000000000009F
:102A880091120808B5120808C1120808B90C0808FC
:102A98009D120808A9120808A3120808AF1208080E
:102AA80093120808971208080000000000000000B0
:102AB80069130808AD13080887130808B90C080833
:102AC800811308086B13080873130808A71308086C
:102AD8007B130808651308080000000000000000C8
:102AE80000000000000000000000000000000000DE
:102AF80000000000000000000000000000000000CE
:102B080000000000000000000000000000000000BD
:102B180000000000000000000000000000000000AD
:102B2800000000000000000000000000000000009D
:102B3800000000000000000043000000F502080843
:102B480035060808A90C0808610F08083D1208088E
:102B58007D120808A1170808D11708083D180808A9
:102B68000119080885190808091A08080000000052
:082B7800000000000000000055
:082B800024F9FF7F01000000B1
:042B88000000000049
:102B8C00752A080800000000E02A0808002B080835
:102B9C00202B0808000000000000000000000000CE
:102BAC0000000000402B080800000000000000009E
:102BBC000000000000000000000000000000000009
:102BCC0000000000000000000000000000000000F9
:102BDC0000000000000000000000000000000000E9
:082BEC000000000004040020B9
:102BF400FFFFFFFF00000102030405060708090A9E
:102C04000B0C0D0E0F101112131415161718191A98
:082C14001B1C1D1E1F202800DF
:042C1C0078563412A0
:0400000508080018CF
:00000001FF
