:020000040808EA
:100000000000080830350808000006000A00050155
:08001000040279050000000064
:04001800C8300808DC
:1000200009480A4908B5884205D0094A824202D0E7
:10003000121A02F0E1FF0748074A0021121A02F0E3
:10004000E6FF064808BD00BF000000209C340808F9
:100050006C0000206C0000203406002034060020D4
:1000600070B500F0E9FF074B074C1E46E41AA408E0
:100070000025A54204D056F8253098470135F8E709
:1000800070BD00BF583408088C34080800F014B85C
:1000900008B500F0DFF8BDE8084000F08FBF00F0C1
:1000A000BDBB00F0C3BB0078B0FA80F040097047D8
:1000B000012303707047000008B50021062001F0FD
:1000C00097FD0121022001F093FD0021084601F077
:1000D0008FFD0121002001F09CFD00F043FA014B4F
:1000E000186008BD7800002037B50021022001F01B
:1000F00090FD022000F02EFA0121022001F089FD7E
:100100000A2000F027FA0021022001F082FD0121DF
:10011000062001F0C1FD02F0BBF813A3D3E90023D0
:1001200002F02CF90022124B02F028F90D46044689
:1001300001F02EFB0F4900F091FD01F029FB022395
:10014000009322462B4600F0A3FE00220023204607
:10015000294602F08FFB10B92046294601E00649E6
:10016000002003B030BD00BFCC5D4BC8073D8B3FC6
:100170000000E03FDC3008080000F0BF08B580B2A6
:1001800001F060FDB0FA80F0400908BD38B50468A0
:1001900005467CB16368013B63605BB92368204618
:1001A0009B689847A368013BA3601BB9236820465E
:1001B000DB689847284638BD70B516461D4688B09E
:1001C000204C0623009302460B4604A800F0D5FC01
:1001D0002378049A1C498DF8003002A83C2301F0D2
:1001E00099F803A8FFF7D2FF04A800F01DFC3146E0
:1001F0000A2204A800F083FC2378049A13498DF89E
:10020000003002A83C2301F085F803A8FFF7BEFFE9
:1002100004A800F009FC29460A2204A800F06FFC9B
:100220002378049A0A498DF8003002A83C2301F093
:1002300071F803A8FFF7AAFF04A800F0F5FB08B0C7
:1002400070BD00BF74000020F0300808F9300808C5
:10025000FF30080870B58CB000F084F97A4D2C6836
:1002600084421CD201F094FA784900F00AFD00F0B3
:1002700079F900F5DB1000F5BA50754C2860754D22
:10028000FFF732FF23682A68FFF796FF00232B60F1
:10029000236001F07DFA704900F0F3FC37E000F0D4
:1002A00061F9241A01F074FA6C49054604A800F0BB
:1002B00002FC4EF660210A22B4FBF1F1684600F020
:1002C00031FC694604A800F085FC654900F08EFC0D
:1002D0004FF47A71B4FBF1F43C23B4FBF3F106461E
:1002E00003FB11410A2208A800F01CFC08A93046B3
:1002F00000F070FC0168284600F0C3FC08A800F07C
:1003000093FB684600F090FB04A800F08DFB0020F2
:10031000FFF734FF002800F0858000F023F9514DED
:100320002B68C01A504B1B6898427BD3494C2368FA
:100330000133236001F02CFA4C4900F0A2FC01F0DB
:1003400027FA4B49064608A800F0B5FB0A222168A7
:1003500004A800F0D4FB04A908A800F03BFC016845
:10036000304600F08EFC04A800F05EFB08A800F008
:100370005BFB00F0F7F828600020FFF7FFFE40B9B4
:1003800000F0F0F8374C384D2368C01A2B689842BB
:1003900053D30B2001F069FC02F0A2FB354904465F
:1003A00002F054FCF0B101F0F3F93349054608A816
:1003B00000F081FB0622214604A800F0C7FB04A937
:1003C00008A800F007FC0168284600F05AFC04A8C1
:1003D00000F02AFB08A800F027FB1D4A1368013330
:1003E000136019E001F0D4F92449054608A800F08B
:1003F00062FB0622214604A800F0A8FB04A908A875
:1004000000F0E8FB0168284600F03BFC04A800F07F
:100410000BFB08A800F008FB4FF47A7000F060FDB9
:100420000CB070BD0020FFF7A9FE0028A4D001F099
:10043000AFF9134900F025FC9EE700F093F82B6814
:10044000C01A2060A5E700BF78000020043108082A
:100450007C000020800000201F3108083631080889
:100460004B3108087000002000000020833108088C
:10047000933108080080ED44593108086B310808B1
:100480004F31080808B5054B01221A7000F00AF830
:1004900000F068F8024B186008BD00BF740000202F
:1004A0007000002008B5024B1B681B68019308BD53
:1004B000B001040808B5024B1B685B68019308BDD6
:1004C000B001040808B5024B1B689B68019308BD86
:1004D000B001040808B5024B1B68DB68019308BD36
:1004E000B001040808B5024B1B681B69019308BDE5
:1004F000B001040808B5024B1B685B69019308BD95
:10050000B001040808B5024B1B681B6B019308BDC2
:10051000B001040808B5024B1B68DB6C019308BDF1
:10052000B001040808B5024B1B68DB69019308BDE4
:10053000B401040808B5024B1B681B6A019308BD8F
:10054000B401040808B5024B1B685B68019308BD41
:100550009C01040808B5024B1B68DB68019308BDC9
:100560009C01040808B5024B1B685B69019308BD38
:100570009C01040808B5024B1B681B6B019308BD66
:10058000D001040808B5024B1B689B69019308BDA4
:10059000C401040808B5024B1B685B6A019308BDDF
:1005A000C401040808B5024B1B689B6A019308BD8F
:1005B000C401040808B5024B1B68DB6A019308BD3F
:1005C000C401040808B5024B1B681B6B019308BDEE
:1005D000C401040808B5024B1B685B6B019308BD9E
:1005E000C401040808B5024B1B689B6B019308BD4E
:1005F000C401040808B5024B1B681B6C019308BDBD
:10060000C401040808B5024B1B681B6A019308BDAE
:10061000AC01040808B5024B1B685B6A019308BD76
:10062000AC01040808B5024B1B689B6A019308BD26
:10063000AC01040808B5024B1B68DB6A019308BDD6
:10064000AC01040808B5024B1B681B6B019308BD85
:10065000AC01040808B5024B1B685B6B019308BD35
:10066000AC01040808B5024B1B681B6C019308BD64
:10067000AC01040808B5024B1B68DB6B019308BD95
:100680002000060808B5024B1B681B68019308BDD3
:100690001C00060808B5024B1B681B69019308BDC6
:1006A0001C00060808B5024B1B685B69019308BD76
:1006B0001C00060808B5024B1B689B69019308BD26
:1006C0001C00060808B5024B1B68DB69019308BDD6
:1006D0001C00060808B5024B1B681B6A019308BD85
:1006E0001C00060808B5024B1B685B68019308BD37
:1006F000A401040808B5024B1B685B69019308BD9F
:10070000A401040808B5024B1B68DB6C019308BD0B
:10071000A401040808B5024B1B685B6D019308BD7A
:10072000A401040808B5034B1B68D3F8903001936B
:1007300008BD0000A401040808B5034B1B68D3F8EA
:100740009C30019308BD0000A401040808B5024BC9
:100750001B685B68019308BDC801040808B5024B1B
:100760001B689B68019308BDC801040808B5024BCB
:100770001B68DB68019308BDC801040808B5024B7B
:100780001B681B69019308BDC801040808B5024B2A
:100790001B685B69019308BDC801040808B5024BDA
:1007A0001B689B69019308BDC801040808B5024B8A
:1007B0001B68DB69019308BDC801040808B5024B3A
:1007C0001B681B6A019308BDC801040808B5024BE9
:1007D0001B681B6B019308BDC801040808B5024BD8
:1007E0001B685B6B019308BDC801040808B5024B88
:1007F0001B685B69019308BDCC01040808B5024B76
:100800001B681B6A019308BDCC01040808B5024BA4
:100810001B68DB6B019308BDCC01040808B5024BD3
:100820001B681B68019308BDA001040808B5024BB2
:100830001B685B68019308BDA001040808B5024B62
:100840001B689B68019308BDA001040808B5024B12
:100850001B68DB6A019308BDA001040808B5024BC0
:100860001B681B6B019308BDA0010408704710B5FD
:100870000446102101F07DFA204610BD70B50446F3
:100880000E46074B0025036040F80C5FFFF772FE31
:1008900030462671FFF746FEA560204670BD00BFBA
:1008A000B43108080079FFF745BE00004FF6FF722B
:1008B000034B0020187058809A80FFF713BF00BFC9
:1008C0008400002010B5044602F0F5FB013823181F
:1008D0002046984206D20278197800F8011B03F8E6
:1008E0000129F6E710BD70B50C46911E222920D8CB
:1008F0002546294610B9234430220EE0B0FBF2F61B
:1009000002FB1600C1B2092805F8011B94BF303163
:10091000573105F8011C3046EBE7994202D201F845
:10092000012BFAE7002320460B70FFF7CBFF204690
:1009300070BD002070BD38B5031E0C4615460BDA9D
:10094000B3F1004F4FF02D0214BF58421846012357
:100950000A702A46194400E00123FFF7C4FF20462D
:1009600038BD00002DE9F14F80460D4617461E4662
:10097000002200234046294601F072FF20B12D23BA
:10098000337005F100450136002301240A22D9B253
:100990008F4202D954430133F9E7204601F088FC25
:1009A00042462B4601F0EAFC82468B4602F07AF979
:1009B0008046894601F0ACFC02460B46504659463B
:1009C00001F028FB0022174B01F05EFF18B118F16F
:1009D000010849F10009E51722462B4640464946E1
:1009E00002F048F901230A223146FFF77CFFAFB13C
:1009F000304602F060FB2E23335401300644224679
:100A00002B464046494602F035F93B4610463146F2
:100A10000A2201B0BDE8F04FFFF765BF01B0BDE8A5
:100A2000F08F00BF0000E03F10B504460068FFF7FC
:100A3000FDFE204610BD10B50446006808B1FFF762
:100A4000F5FE00232360A360636010BD38B5044643
:100A50000D4600680131FFF7F1FE10B184E8210076
:100A6000012038BD10B50368044613B143688B42BA
:100A700007D22046FFF7EAFF20B1A3680BB922682E
:100A80001370012010BD70B50E4611460446154680
:100A9000FFF7E8FF18B92046FFF7CDFF09E02A4627
:100AA0003146A560206802F0A7FA2268A3680021F9
:100AB000D154204670BD38B500230446036043601E
:100AC000836003730D4639B1084602F0F4FA2946F3
:100AD00002462046FFF7D7FF204638BD38B5054609
:100AE0000C4641B1084602F0E6FA21460246284685
:100AF000FFF7C9FF01E0FFF79EFF284638BD10B59C
:100B0000044600238AB023606360A3602373084611
:100B100001A9FFF710FF01A92046FFF7DFFF2046DC
:100B20000AB010BD10B504468AB00023236063608C
:100B3000A36023730846012301A9FFF7D4FE01A98E
:100B40002046FFF7CBFF20460AB010BD30B5044663
:100B500000238BB00360436083600373D5B2084603
:100B600001F0B8FB01AB2A46FFF7FCFE01A92046C5
:100B7000FFF7B4FF20460BB030BD10B504468AB075
:100B800019460023104623606360A36023739DF819
:100B9000302001ABFFF7E6FE01A92046FFF79EFFDC
:100BA00020460AB010BD70B504460E4609B90020B3
:100BB00070BD6AB18368D5182946FFF753FF002836
:100BC000F5D02068A3683146184402F051FAA560B8
:100BD000012070BD10B58A6809680446FFF7E3FF7D
:100BE00010B92046FFF727FF204610BD38B5044650
:100BF0000D4641B1084602F05EFA294602462046FB
:100C0000FFF7D1FF10B92046FFF715FF204638BD8A
:100C1000F8B506460D468F180024BD420CD0336847
:100C200015F8011B9B6830469847002801DB0444F7
:100C3000F3E7002C08BF04462046F8BD70B5054612
:100C40000C46084649B102F036FA2B6802462146A6
:100C50002846BDE87040DB68184770BD08B5FFF74F
:100C6000EDFF08BD03689B68184738B50D210546A0
:100C7000FFF7F8FF0A2104462846FFF7F3FF204458
:100C800038BD38B50546FFF7D9FF04462846FFF7BB
:100C9000ECFF204438BD012A98BF0A2230B50B462C
:100CA0008BB000218DF824100DF12304B3FBF2F575
:100CB00005FB1233DBB2092B94BF30333733DBB281
:100CC000214604F801392B46002DEFD1FFF7B6FF7E
:100CD0000BB030BD10B422B90368C9B29B6810BC18
:100CE0001847D2B210BCFFF7D6BFFFF7F3BF2DE90C
:100CF000F04107460E4615462AB9BDE8F0410368A3
:100D0000C9B29B6818470A2A02D1002901DA04E017
:100D1000D2B2BDE8F041FFF7BEBF2D21FFF7A2FF21
:100D20002A46044671423846FFF7B5FF2044BDE825
:100D3000F08100002DE9F843194680461046174619
:100D40001E469DF8205001F0B3FD08B1474912E05E
:100D500026F000444FF0FF32454B3846214601F063
:100D6000A7FD68B94FF0FF32414B3846214601F0EC
:100D700081FD28B93F494046FFF760FFBDE8F88391
:100D80004FF060423C4B3846314601F087FD08B1D8
:100D90003A49F0E74FF06042394B3846314601F0AE
:100DA0005FFD0028F4D1002200233846314601F0CF
:100DB00057FD38B12D214046FFF754FF06F100469C
:100DC000044600E004462F494FF0000900205FFA76
:100DD00089F39D4206D900222B4B01F0F9FB09F162
:100DE0000109F4E73A46334601F016F90F46064684
:100DF00001F09CFD0A22014681464046FFF74BFF69
:100E000004447DB3484601F043FA02460B4630469F
:100E1000394601F0FFF806460F4640461B49FFF7EA
:100E20000DFF0444184B00223046394601F0A6FA63
:100E30000F46064601F052FD0A2201468146404611
:100E4000FFF755FF0444484601F032FA02460B46CC
:100E50003046394601F0DEF8013D15F0FF05064643
:100E60000F46DFD12046BDE8F88300BFBC3108083B
:100E7000FFFFEF7FC4310808FFFFEF41C0310808D2
:100E8000FFFFEFC10000E03F000024405731080899
:100E900037B59DF8181005460091FFF74BFF044643
:100EA0002846FFF7E2FE204403B030BD0B68036024
:100EB00013B15A6801325A6070470000014A024B70
:100EC0001A6070473E3208088C000020024B1A68F6
:100ED000024B1A60704700BF040000209000002001
:100EE0000021FFF707BC10B58368044613B1032245
:100EF00001469847204610BD10B50446FFF7F3FFA2
:100F0000204610BD13B50B46044603C88DE8030008
:100F100093E8030084E803009DE8030083E80300EE
:100F200002B010BD034800238360034A034900F068
:100F30001BBF00BF940000206C000020F90E0808C1
:100F400008B5184B33B100F023FC03681B699847C0
:100F500000281EDC144B33B100F046FD03681B690A
:100F60009847002818DC114B0BB1AFF30080104BF1
:100F70000BB1AFF300800F4B0BB1AFF300800E4B02
:100F80007BB100F041FC03681B699847002806DC30
:100F900008BDAFF30080DDE7AFF30080E3E7AFF318
:100FA000008008BD000000000000000000000000FC
:100FB00000000000000000000000000008B5FFF77E
:100FC000BFFFFFF7CFFA014B186008BD7005002086
:100FD0000248034A0349121A02F00EB800400240C8
:100FE000044002409834080807B5002300931A46CD
:100FF0006FF07701FFF7A0FB03B05DF804FB000082
:1010000007B543880A2B08D0502B09D1094B1B6820
:101010003BB103B05DF804EB1847FFF7E5FF06E0CE
:10102000002300931A466FF07701FFF785FB03B0AA
:101030005DF804FBA400002038B5104C104D236867
:10104000AB42104B0CBF012200221A7002D0FFF7F6
:10105000BFFF2560FFF776FA044601F0E1FF0A4B77
:1010600013B12046AFF3008000210748FFF7CEFB05
:10107000BDE8384000210548FFF754BB004002405E
:101080001E1C279AA800002000000000011008087C
:1010900070470020704710B50446102100F069FE2B
:1010A000204610BD08B508B1FFF7F5FF08BD0022C6
:1010B00002604FF69C72828010B5B1F904408480C2
:1010C0008A8002680C6804600A6010BD10B504468E
:1010D0000068FFF7ABFB204610BD38B5C468F4B11B
:1010E0002378022B03D104F10C00FFF7EFFF6568B2
:1010F00035B12846FFF7F7FE1021284600F039FEEB
:10110000A56835B12846FFF7EEFE1021284600F00D
:1011100030FE2046BDE83840142100F02ABE38BD1C
:1011200013B5044691E8050000234B600B60206076
:10113000626001A801930093FFF728F8204602B0EF
:1011400010BDF7B50C4606460F4654F8043B02ADF9
:1011500045F8083D214601A8FFF7A8FE294630467C
:10116000FFF7DEFF01A8FFF711F82046FFF70EF8A2
:101170003846082100F0FDFD304603B0F0BD000008
:1011800038B500230446036010200D46FEF787FFA4
:1011900028B1012343608360024BC5600360206077
:1011A000204638BDDC320808826810B50AB900F064
:1011B000E2FDC368BDE81040184708B5006800F1BB
:1011C0001001FFF7F1FF08BD826810B50AB900F001
:1011D000D2FDC368BDE81040184708B5006800F1AB
:1011E0001001FFF7F1FF08BD38B5002383608B685D
:1011F00004460D462BB102229847EB68E360AB68CA
:10120000A360204638BD0000F0B589B00468684688
:10121000FFF74DFF4FF0020200238DF80830D4E8AD
:101220004F3F002B03D1C4E8412F0029F7D102D052
:101230008DF8083063E014F10C0503D069462846A8
:10124000FFF735FFBFF35F8F01236370BFF35F8F3D
:1012500004F10803002053E8006F43E80002002A6D
:10126000F9D1BFF35F8F002E49D0FFF74BFA20B1C1
:1012700029463046FFF798FF3AE0314602A8FFF7CB
:10128000B3FFE068B4F9105008B101F0F9FE069020
:101290001020ADF81C50FEF702FF0546E8B100270C
:1012A00087601820FEF7FBFE044688B10146876080
:1012B00002A8FFF727FE049BA268A360059B049287
:1012C000E26806A9E36004F110000592FFF7EFFE63
:1012D0000D4B2C60EB600D4BAB6006A8FFF7F6FEE4
:1012E00002A8FFF700FE002229460948FFF712FA7C
:1012F0003046FFF7F8FD1021304600F03AFD684611
:10130000FFF7E4FE09B0F0BDBB110808311408086E
:10131000351A08082DE9F04F8BB006460F46904667
:1013200099469DF850A0FFF761FA07AD834630BBA0
:101330004FF62E73059005A92846ADF81830FFF733
:10134000B6FE1420FEF7ABFE044658B1022303702C
:1013500001234370C0F804B0C0F808B029460C302F
:10136000FFF7A5FE3046214640F8044BFFF708FF83
:101370002846FFF7ABFE05A8FFF7A8FE52E00024C1
:101380000C2314206C60AC600793FEF788FE0146C6
:1013900018B1047044704460846004A80391FFF79E
:1013A000EFFE224B08200893FEF779FE044628B191
:1013B000039B04A940F8043BFFF778FD00955FFA12
:1013C0008AF34A46414638460994FFF717FA20B98E
:1013D000039B5B7803F0FF0283B1039B04A906A87B
:1013E0000593FFF763FD05A93046FFF799FE06A8B0
:1013F000FEF7CCFE04A8FEF7C9FE13E04FF69C737F
:1014000005A903A80592ADF81830FFF7FDFE05A861
:10141000FFF75CFE05A80999FFF793FE06A8FEF703
:10142000B5FEDAE730460BB0BDE8F08FA11508082D
:10143000022AF8B5044606D0032A17D0012A22D181
:101440000B6803601FE018200E68FEF728FE0546B3
:1014500050B13146FFF7C8FE3069B6F9147008B1D3
:1014600001F00EFE2861AF8225600CE0046854B1E3
:1014700004F11000FFF72AFE2046FFF734FD182183
:10148000204600F076FC0020F8BD38B500238360CC
:101490008B6804460D462BB102229847EB68E36047
:1014A000AB68A360204638BD022A70B5044606D05A
:1014B000032A11D0012A18D10B68036015E014200B
:1014C0000E68FEF7ECFD054620B13146FFF7DDFF63
:1014D000337C2B74256008E0046834B12046FFF7A4
:1014E00002FD1421204600F044FC002070BD0000E5
:1014F000F0B50C46BFF35F8F87B0002350E8006F54
:1015000040E80032002AF9D1BFF35F8F002E3FD0B0
:101510001846FFF7F7F8074620B121463046FFF797
:1015200053FE2EE0314601A8FFF7AFFF23781020CD
:101530008DF81430FEF7B3FD0546D0B18760142056
:10154000FEF7ADFD044678B18760014601A8FFF7BC
:10155000D9FC039BA268A360049B0392E268E3604A
:101560009DF81430049223740A4B2C60EB600A4BF4
:10157000AB6001A8FFF7B7FC002229460748FFF738
:10158000C9F83046FFF7AFFC1021304600F0F1FB00
:1015900007B0F0BDDB110808A9140808351A0808BF
:1015A00030B5044685B00D4668461146FFF7C9FDC3
:1015B0007CB124B228460DB101F062FD029002A96F
:1015C0006846ADF80C40FFF71FFE02A8FFF77EFD4E
:1015D0001DE04FF0010200988DF80840D0E84F3F21
:1015E000A34203D1C0E8412F0029F7D102D08DF8E2
:1015F00008300CE010F10C014FF0010318BF037329
:10160000BFF35F8F043000F8033CFFF771FF01A8C0
:10161000FEF7BCFD05B030BD704710B5044608218B
:1016200000F0A7FB204610BDF8B50F4600F10806F4
:10163000051D002416F8011D0A223846FFF755FB48
:10164000AE42044407D0002CF4D02E213846FFF7D8
:1016500009FB0444EEE72046F8BD0000024A0260A0
:1016600000224260704700BFF8320808024A026058
:101670000A684260704700BFF8320808014A4160BA
:1016800002607047F832080810B59DF8084044EA37
:10169000032343EA024242EA0161416010BD0000B7
:1016A00037B5044D05609DF818500095FFF7ECFF25
:1016B00003B030BDF832080841747047704708B570
:1016C0000021007CFEF7F6FF30EA200028BF4FF033
:1016D000FF3008BD08B50121007CFEF7EBFF30EAC2
:1016E000200028BF4FF0FF3008BD08B5007CFEF792
:1016F000D9FF20EAE07008BD08B5007CFEF7CAFFFC
:1017000020EAE07008BD007CFEF7E4BF10B5044697
:10171000142100F02EFB204610BD38B50446007C95
:101720000D46FEF7BFFF002801DC607C28B129468A
:10173000207CFEF7C7FF20EAE07038BD10B50446F4
:10174000002363604FF47A73A360054B084623605F
:101750000123217463741146FEF794FF204610BDE7
:101760000C33080810B504461422002101F04FFC88
:10177000054B20466360054BE36040F20113238173
:101780008123238210BD00BF31010020B000002062
:1017900030B50E4D87B001A8FFF7E4FF296811F0BE
:1017A000010410D12846FEF77EFC60B101AA214653
:1017B0000748FFF7C3FF2846FEF77AFC054A0649AB
:1017C000034800F0D1FA024807B030BDAC00002059
:1017D000340200206C000020BD16080810B5044635
:1017E0001422002101F013FC054B20466360054BD9
:1017F000E36040F2011323818123238210BD00BFE7
:10180000E40200204C02002010B50E4C86B001A866
:10181000FFF7E4FF2368DB0710D42046FEF743FC04
:1018200060B101AA01210848FFF788FF2046FEF7B2
:101830003FFC064A0649044800F096FA024806B002
:1018400010BD00BF48020020D00200206C00002024
:10185000BD160808002211464068FEF78FBF2DE92B
:10186000FF41002604AC054610468846174644F85A
:10187000046D01F020FC009681B2D8F804302246B5
:101880003846FEF7F7FE20B131462846FFF7F6FE50
:1018900003E021462846FFF7E9FE284604B0BDE8EC
:1018A000F081002211464068FEF788BF00221146F1
:1018B0004068FEF793BF00224068FEF787BF002212
:1018C00081F001014068FEF771BF00231A461946F6
:1018D0004068FEF763BF00231A4619464068FEF7CA
:1018E00055BF002211464068FEF738BF0022022192
:1018F0004068FEF73BBF00231A464068FEF726BF4C
:1019000038B5084C28252A460021204601F07FFBE7
:101910004FF0FF336360044B04225A60034A258072
:101920001A6038BDF0030020E80300203C330808AB
:1019300070474174704708B5007CFEF75BFE20EAF3
:10194000E07008BD08B5007CFEF72CFE20EAE070D0
:1019500008BD08B5007CFEF735FE30EA200028BF40
:101960004FF0FF3008BD08B5007CFEF723FE30EADB
:10197000200028BF4FF0FF3008BD007CFEF72ABED4
:1019800010B50446142100F0F4F9204610BD70B5DE
:10199000457C04460E4625B9007CFEF72BFE002848
:1019A00005DD3146207CBDE87040FEF7F3BD2846DA
:1019B00070BD000010B50446084611460022626062
:1019C0004FF47A72A260054A207422600122627488
:1019D0001A46FEF7D7FD204610BD00BF7033080839
:1019E000007CFEF7FFBD000038B50C4D296811F0F2
:1019F000010411D12846FEF756FB68B1084A21467A
:101A0000084B0948FFF7D6FF2846FEF751FB074A67
:101A10000749054800F0A8F9034838BDB004002084
:101A2000B40400202C040020180400206C000020C6
:101A30003119080810B5836804460BB900F09BF90A
:101A4000C3689847A3681BB10322214620469847E4
:101A50002046BDE81040102100F08BB97047F8B562
:101A6000064615460C468F18BC4206D0336814F85B
:101A7000011B9B6830469847F6E72846F8BD0022D0
:101A8000007CFEF7BFBD0021007CFEF7C3BD002136
:101A9000007CFEF7C7BD0021007CFEF7CBBD002116
:101AA000007CFEF7CFBD10B50446142100F061F9AB
:101AB000204610BD10B5044608464FF47A73A36063
:101AC000044B0021207461602360FEF7CBFD2046AB
:101AD00010BD00BFA03308080021007CFEF7BABD8E
:101AE00000231A464068FEF731BE002202214068FA
:101AF000FEF73CBE002211464068FEF72FBE0022D2
:101B000011464068FEF73ABE00231A46194640685F
:101B1000FEF73CBE00231A4619464068FEF73EBE5B
:101B2000002281F001014068FEF740BE00224068BB
:101B3000FEF74CBE002211464068FEF74FBE002261
:101B400011464068FEF73ABEF0B5174687B0054625
:101B500004A8FFF783FD002606AC384644F80C6D58
:101B600001F0A9FA0A4B009681B25B68224638461A
:101B7000FEF780FD20B131462846FFF77FFD03E0E8
:101B800021462846FFF772FD284607B0F0BD00BF8A
:101B9000E8030020024B034A1A6000225A60704793
:101BA00038050020C833080810B504460F48FEF772
:101BB00079FE28B1A4F10D03022B01D8002010BD3D
:101BC00000F0B2F8FFF788FF08B1012CF6D9FFF753
:101BD0000BFFFFF705FF18B1A4F11203012BEDD99C
:101BE0002E2C8CBF0020012010BD00BF400500201E
:101BF0002E2838B504460D460AD8FF2908D0FFF72D
:101C0000D3FF28B129462046BDE83840FEF75ABC2C
:101C100038BD38B504460D46FEF75CFCFF2810D0F1
:101C2000062804D84D2323FA00F0C30709D4204620
:101C3000FFF7BAFF28B129462046BDE83840FEF735
:101C400051BC38BD10B50446FEF744FC0438C0B2A0
:101C5000012808D92046FFF7A7FF20B12046BDE89C
:101C60001040FEF747BC002010BD10B504460928FF
:101C70009CBF0A34A4B22046FFF796FF50B103215F
:101C80002046FEF717FC032804D12046BDE810408B
:101C9000FEF738BC002010BDFEF73CBC70B5114EFD
:101CA000114D124C00213046FEF7E8FD3046104E33
:101CB0002A46214600F058F801213046FEF7DEFDA5
:101CC00030460C4E2A46214600F04EF8022130469E
:101CD000FEF7D4FD2A4621463046BDE8704000F0AC
:101CE00043B800BF400500206C0000206D080808C4
:101CF000500500206005002013B5084C00231A464B
:101D0000194600932046FFF7CBFC2046044A0549BC
:101D100002B0BDE8104000F027B800BF74050020F5
:101D20006C0000201916080838B50B4D296811F011
:101D300001040FD12846FEF7B6F958B121460748ED
:101D4000FFF7B8FE2846FEF7B3F9054A05490348F0
:101D500000F00AF8014838BD7C050020800500200D
:101D60006C0000205D1A08080B460146184601F079
:101D700035B9FEF796B908B5FEF768FD184B1A6835
:101D8000D1075CBF01221A60164B1A68D2075CBFEC
:101D900001221A60144B1A68D0075CBF01221A6036
:101DA000124B1A68D1075CBF01221A60104B1A68E7
:101DB000D2075CBF01221A600E4B1A68D0075CBFC5
:101DC00001221A600C4B1A68D1075CBF01221A600D
:101DD0000A4B1A68D2075CBF01221A60704700BF25
:101DE000B0050020AC050020A8050020A4050020B7
:101DF000A00500209C0500209805002094050020E7
:101E0000244B1A68D0075CBF01221A60224B1A6863
:101E1000D1075CBF01221A60204B1A68D2075CBF51
:101E200001221A601E4B1A68D0075CBF01221A609B
:101E30001C4B1A68D1075CBF01221A601A4B1A6842
:101E4000D2075CBF01221A60184B1A68D0075CBF2A
:101E500001221A60164B1A68D1075CBF01221A6072
:101E6000144B1A68D2075CBF01221A60124B1A6821
:101E7000D0075CBF01221A60104B1A68D1075CBF03
:101E800001221A600E4B1A68D2075CBF01221A6049
:101E9000704700BFE0050020DC050020D8050020C9
:101EA000D4050020D0050020CC050020C805002066
:101EB000C4050020C0050020BC050020B805002096
:101EC000B4050020244B1A68D0075CBF01221A60B9
:101ED000224B1A68D1075CBF01221A60204B1A6896
:101EE000D2075CBF01221A601E4B1A68D0075CBF84
:101EF00001221A601C4B1A68D1075CBF01221A60CC
:101F00001A4B1A68D2075CBF01221A60184B1A6874
:101F1000D0075CBF01221A60164B1A68D1075CBF5C
:101F200001221A60144B1A68D2075CBF01221A60A2
:101F3000124B1A68D0075CBF01221A60104B1A6856
:101F4000D1075CBF01221A600E4B1A68D2075CBF32
:101F500001221A60704700BF100600200C06002006
:101F6000080600200406002000060020FC050020D2
:101F7000F8050020F4050020F0050020EC05002005
:101F8000E8050020E4050020184B1A68D1075CBF63
:101F900001221A60164B1A68D2075CBF01221A6030
:101FA000144B1A68D0075CBF01221A60124B1A68E2
:101FB000D1075CBF01221A60104B1A68D2075CBFC0
:101FC00001221A600E4B1A68D0075CBF01221A600A
:101FD0000C4B1A68D1075CBF01221A600A4B1A68C1
:101FE000D2075CBF01221A60704700BF3006002094
:101FF0002C060020280600202406002020060020B1
:102000001C060020180600201406002081F0004164
:1020100002E000BF83F0004330B54FEA41044FEACD
:10202000430594EA050F08BF90EA020F1FBF54EA68
:10203000000C55EA020C7FEA645C7FEA655C00F004
:10204000E2804FEA5454D4EB5555B8BF6D420CDDD5
:102050002C4480EA020281EA030382EA000083EA58
:10206000010180EA020281EA0303362D88BF30BDF8
:1020700011F0004F4FEA01314FF4801C4CEA11314E
:1020800002D0404261EB410113F0004F4FEA0333AD
:102090004CEA133302D0524263EB430394EA050F38
:1020A00000F0A780A4F10104D5F1200E0DDB02FAA7
:1020B0000EFC22FA05F2801841F1000103FA0EF23B
:1020C000801843FA05F359410EE0A5F120050EF101
:1020D000200E012A03FA0EFC28BF4CF0020C43FA32
:1020E00005F3C01851EBE37101F0004507D54FF03F
:1020F000000EDCF1000C7EEB00006EEB0101B1F58F
:10210000801F1BD3B1F5001F0CD349085FEA3000D4
:102110004FEA3C0C04F101044FEA445212F5800FDF
:1021200080F09A80BCF1004F08BF5FEA500C50F17C
:10213000000041EB045141EA050130BD5FEA4C0C5F
:10214000404141EB010111F4801FA4F10104E9D1E8
:1021500091F0000F04BF01460020B1FA81F308BFDF
:102160002033A3F10B03B3F120020CDA0C3208DDAB
:1021700002F1140CC2F10C0201FA0CF021FA02F186
:102180000CE002F11402D8BFC2F1200C01FA02F1F6
:1021900020FA0CFCDCBF41EA0C019040E41AA2BF1B
:1021A00001EB0451294330BD6FEA04041F3C1CDAE3
:1021B0000C340EDC04F11404C4F1200220FA04F003
:1021C00001FA02F340EA030021FA04F345EA0301AD
:1021D00030BDC4F10C04C4F1200220FA02F001FA6F
:1021E00004F340EA0300294630BD21FA04F02946F1
:1021F00030BD94F0000F83F4801306BF81F480118A
:102200000134013D4EE77FEA645C18BF7FEA655CFC
:1022100029D094EA050F08BF90EA020F05D054EACE
:10222000000C04BF1946104630BD91EA030F1EBFD3
:102230000021002030BD5FEA545C05D140004941D7
:1022400028BF41F0004130BD14F580043CBF01F5CA
:10225000801130BD01F0004545F0FE4141F47001B0
:102260004FF0000030BD7FEA645C1ABF194610468B
:102270007FEA655C1CBF0B46024650EA013406BF8C
:1022800052EA033591EA030F41F4002130BD00BF4B
:1022900090F0000F04BF0021704730B54FF4806408
:1022A00004F132044FF000054FF0000150E700BF89
:1022B00090F0000F04BF0021704730B54FF48064E8
:1022C00004F1320410F0004548BF40424FF00001D5
:1022D0003EE700BF42004FEAE2014FEA31014FEA18
:1022E00002701FBF12F07F4393F07F4F81F0605167
:1022F000704792F0000F14BF93F07F4F704730B5D6
:102300004FF4607401F0004521F0004120E700BF68
:1023100050EA010208BF704730B54FF000050AE0EF
:1023200050EA010208BF704730B511F0004502D5F0
:10233000404261EB41014FF4806404F132045FEAF2
:10234000915C3FF4DCAE4FF003025FEADC0C18BF97
:1023500003325FEADC0C18BF033202EBDC02C2F18D
:10236000200300FA03FC20FA02F001FA03FE40EA1F
:102370000E0021FA02F11444C1E600BF70B54FF01F
:10238000FF0C4CF4E06C1CEA11541DBF1CEA135501
:1023900094EA0C0F95EA0C0F00F0DEF82C4481EA69
:1023A000030621EA4C5123EA4C5350EA013518BF89
:1023B00052EA033541F4801143F4801338D0A0FB76
:1023C00002CE4FF00005E1FB02E506F00042E0FB23
:1023D00003E54FF00006E1FB03569CF0000F18BF29
:1023E0004EF0010EA4F1FF04B6F5007F64F54074D1
:1023F00004D25FEA4E0E6D4146EB060642EAC62164
:1024000041EA55514FEAC52040EA5E504FEACE2ED0
:10241000B4F1FD0C88BFBCF5E06F1ED8BEF1004FD3
:1024200008BF5FEA500E50F1000041EB045170BD4F
:1024300006F0004646EA010140EA020081EA030193
:10244000B4EB5C04C2BFD4EB0C0541EA045170BD8F
:1024500041F480114FF0000E013C00F3AB8014F109
:10246000360FDEBF002001F0004170BDC4F1000452
:10247000203C35DA0C341BDC04F11404C4F12005D3
:1024800000FA05F320FA04F001FA05F240EA02002E
:1024900001F0004221F0004110EBD37021FA04F664
:1024A00042EB06015EEA430E08BF20EAD37070BD1E
:1024B000C4F10C04C4F1200500FA04F320FA05F07D
:1024C00001FA04F240EA020001F0004110EBD3707F
:1024D00041F100015EEA430E08BF20EAD37070BDEF
:1024E000C4F1200500FA05F24EEA020E20FA04F3C8
:1024F00001FA05F243EA020321FA04F001F0004177
:1025000021FA04F220EA020000EBD3705EEA430EE7
:1025100008BF20EAD37070BD94F0000F0FD101F016
:102520000046400041EB010111F4801F08BF013C4F
:10253000F7D041EA060195F0000F18BF704703F08D
:102540000046520043EB030313F4801F08BF013D14
:10255000F7D043EA0603704794EA0C0F0CEA1355D0
:1025600018BF95EA0C0F0CD050EA410618BF52EA8A
:102570004306D1D181EA030101F000414FF0000090
:1025800070BD50EA410606BF1046194652EA43069E
:1025900019D094EA0C0F02D150EA013613D195EA12
:1025A0000C0F05D152EA03361CBF104619460AD15A
:1025B00081EA030101F0004141F0FE4141F4700164
:1025C0004FF0000070BD41F0FE4141F4780170BD54
:1025D00070B54FF0FF0C4CF4E06C1CEA11541DBFB9
:1025E0001CEA135594EA0C0F95EA0C0F00F0A7F8BB
:1025F000A4EB050481EA030E52EA03354FEA0131E8
:1026000000F088804FEA03334FF0805545EA1313FA
:1026100043EA12634FEA022245EA111545EA1065C2
:102620004FEA00260EF000419D4208BF964244F159
:10263000FD0404F5407402D25B084FEA3202B61A78
:1026400065EB03055B084FEA32024FF480104FF44C
:10265000002CB6EB020E75EB030E22BFB61A7546C0
:1026600040EA0C005B084FEA3202B6EB020E75EB53
:10267000030E22BFB61A754640EA5C005B084FEABB
:102680003202B6EB020E75EB030E22BFB61A754688
:1026900040EA9C005B084FEA3202B6EB020E75EB93
:1026A000030E22BFB61A754640EADC0055EA060E54
:1026B00018D04FEA051545EA16754FEA06164FEA97
:1026C000C30343EA52734FEAC2025FEA1C1CC0D143
:1026D00011F4801F0BD141EA00014FF000004FF0D0
:1026E000004CB6E711F4801F04BF01430020B4F191
:1026F000FD0C88BFBCF5E06F3FF6AFAEB5EB030C49
:1027000004BFB6EB020C5FEA500C50F1000041EB45
:10271000045170BD0EF0004E4EEA113114EB5C0412
:10272000C2BFD4EB0C0541EA045170BD41F48011E5
:102730004FF0000E013C90E645EA060E8DE60CEAED
:10274000135594EA0C0F08BF95EA0C0F3FF43BAF0A
:1027500094EA0C0F0AD150EA01347FF434AF95EAC1
:102760000C0F7FF425AF104619462CE795EA0C0FA5
:1027700006D152EA03353FF4FDAE1046194622E772
:1027800050EA410618BF52EA43067FF4C5AE50EA4C
:1027900041047FF40DAF52EA43057FF4EBAE12E73C
:1027A0004FF0FF3C06E000BF4FF0010C02E000BF1D
:1027B0004FF0010C4DF804CD4FEA410C7FEA6C5C00
:1027C0004FEA430C18BF7FEA6C5C1BD001B050EAA3
:1027D000410C0CBF52EA430C91EA030F02BF90EA8E
:1027E000020F0020704710F1000F91EA030F58BF4D
:1027F000994208BF90422CBFD8176FEAE37040F0AF
:10280000010070474FEA410C7FEA6C5C02D150EA4C
:10281000013C07D14FEA430C7FEA6C5CD6D152EA07
:10282000033CD3D05DF8040B704700BF84461046CC
:1028300062468C461946634600E000BF01B5FFF7CB
:10284000B7FF002848BF10F1000F01BD4DF808ED9B
:10285000FFF7F4FF0CBF012000205DF808FB00BF6C
:102860004DF808EDFFF7EAFF34BF012000205DF8C6
:1028700008FB00BF4DF808EDFFF7E0FF94BF012013
:1028800000205DF808FB00BF4DF808EDFFF7CEFF14
:1028900094BF012000205DF808FB00BF4DF808ED53
:1028A000FFF7C4FF34BF012000205DF808FB00BF24
:1028B0004FEA410C7FEA6C5C02D150EA013C0AD13C
:1028C0004FEA430C7FEA6C5C02D152EA033C02D12E
:1028D0004FF0000070474FF0010070474FEA41028F
:1028E00012F5001215D211D56FF47873B3EB625262
:1028F00012D94FEAC12343F0004343EA505311F089
:10290000004F23FA02F018BF404270474FF000001A
:10291000704750EA013005D111F0004008BF6FF058
:10292000004070474FF00000704700BF4A0011D2CE
:1029300012F5001211D20DD56FF47873B3EB625219
:102940000ED44FEAC12343F0004343EA505323FA25
:1029500002F070474FF00000704750EA013002D19A
:102960004FF0FF3070474FF00000704780F000409C
:1029700002E000BF81F0004142001FBF5FEA410357
:1029800092EA030F7FEA226C7FEA236C6AD04FEA57
:102990001262D2EB1363C1BFD2184140484041409C
:1029A000B8BF5B42192B88BF704710F0004F40F44E
:1029B000000020F07F4018BF404211F0004F41F46A
:1029C000000121F07F4118BF494292EA030F3FD036
:1029D000A2F1010241FA03FC10EB0C00C3F1200349
:1029E00001FA03F100F0004302D5494260EB4000D8
:1029F000B0F5000F13D3B0F1807F06D340084FEA43
:102A0000310102F10102FE2A51D2B1F1004F40EB37
:102A1000C25008BF20F0010040EA0300704749009F
:102A200040EB000010F4000FA2F10102EDD1B0FA6A
:102A300080FCACF1080CB2EB0C0200FA0CF0AABF5F
:102A400000EBC25052421843BCBFD04018437047FD
:102A500092F0000F81F4000106BF80F40000013203
:102A6000013BB5E74FEA41037FEA226C18BF7FEADA
:102A7000236C21D092EA030F04D092F0000F08BF1C
:102A80000846704790EA010F1CBF0020704712F003
:102A90007F4F04D1400028BF40F00040704712F142
:102AA00000723CBF00F50000704700F0004343F0A7
:102AB000FE4040F4000070477FEA226216BF0846DD
:102AC0007FEA23630146420206BF5FEA412390EAA0
:102AD000010F40F4800070474FF0000304E000BF96
:102AE00010F0004348BF40425FEA000C08BF704747
:102AF00043F0964301464FF000001CE050EA01020B
:102B000008BF70474FF000030AE000BF50EA01021F
:102B100008BF704711F0004302D5404261EB41010C
:102B20005FEA010C02BF84460146002043F0B64331
:102B300008BFA3F18053A3F50003BCFA8CF2083A56
:102B4000A3EBC25310DB01FA02FC634400FA02FC5F
:102B5000C2F12002BCF1004F20FA02F243EB020066
:102B600008BF20F00100704702F1200201FA02FCC8
:102B7000C2F1200250EA4C0021FA02F243EB0200BB
:102B800008BF20EADC7070474FF0FF3C06E000BF52
:102B90004FF0010C02E000BF4FF0010C4DF804CDE6
:102BA0004FEA40024FEA41037FEA226C18BF7FEAF6
:102BB000236C11D001B052EA530C18BF90EA010FF8
:102BC00058BFB2EB030088BFC81738BF6FEAE17087
:102BD00018BF40F0010070477FEA226C02D15FEA23
:102BE000402C05D17FEA236CE4D15FEA412CE1D08F
:102BF0005DF8040B704700BF844608466146FFE756
:102C00000FB5FFF7C9FF002848BF10F1000F0FBD37
:102C10004DF808EDFFF7F4FF0CBF012000205DF830
:102C200008FB00BF4DF808EDFFF7EAFF34BF0120B5
:102C300000205DF808FB00BF4DF808EDFFF7E0FF4E
:102C400094BF012000205DF808FB00BF4DF808ED9F
:102C5000FFF7D2FF94BF012000205DF808FB00BF02
:102C60004DF808EDFFF7C8FF34BF012000205DF8E4
:102C700008FB00BF53B94AB9002908BF00281CBF90
:102C80004FF0FF314FF0FF3000F0A6B9ADF1080C66
:102C90006DE904CE00F02AF8DDF804E0DDE9022356
:102CA00004B07047D0B500220E4B06460F46FFF722
:102CB00065FBFFF73BFE0446FFF7EAFA00220A4BEA
:102CC000FFF75CFB02460B4630463946FFF7A2F998
:102CD000FFF72CFE2346002242EA00021046194666
:102CE000D0BD00BF0000F03D0000F0412DE9F04FE5
:102CF0008C460C460546099E002B4FD18A4217464A
:102D00006BD9B2FA82FEBEF1000F0BD0CEF12005D6
:102D100020FA05F501FA0EF345EA030C02FA0EF764
:102D200000FA0EF5390CBCFBF1F0BAB201FB10C38E
:102D300000FB02F84FEA154C4CEA0344A04509D9C0
:102D4000E41900F1FF3380F02881A04540F225818D
:102D500002383C44C8EB0404B4FBF1F301FB134C10
:102D600003FB02F2ACB244EA0C418A4209D9C91908
:102D700003F1FF3480F00F818A4240F20C81023B64
:102D800039448A1A43EA00400021002E63D022FA17
:102D90000EF2002386E80C00BDE8F08F8B4207D9C5
:102DA000002E56D0002186E811000846BDE8F08FBD
:102DB000B3FA83F1002940F09380A34202D3824208
:102DC00000F2FE80851A64EB03039C460120002E6E
:102DD00041D086E82010BDE8F08F12B90127B7FB7B
:102DE000F2F7B7FA87FEBEF1000F36D1E41B4FEAC7
:102DF00017481FFA87F90121B4FBF8F308FB1344C5
:102E000009FB03F24FEA154C4CEA0444A24207D9ED
:102E1000E41903F1FF3002D2A24200F2D38003464C
:102E2000A41AB4FBF8F008FB104809FB00F9ACB297
:102E300044EA0842914507D9D21900F1FF3402D281
:102E4000914500F2BA802046C9EB020240EA0340F5
:102E50009BE731463046BDE8F08F07FA0EF7CEF11A
:102E6000200C24FA0CF34FEA1748B3FBF8FA1FFAC8
:102E700087F908FB1A3520FA0CFC04FA0EF40AFB59
:102E800009FB4CEA040C4FEA1C4242EA05439B450D
:102E900000FA0EF50AD9DB190AF1FF3280F08B80B7
:102EA0009B4540F28880AAF1020A3B44CBEB030326
:102EB000B3FBF8F008FB103300FB09F41FFA8CFC9D
:102EC0004CEA03439C4207D9DB1900F1FF326ED272
:102ED0009C426CD902383B441C1B40EA0A418BE7F8
:102EE000C1F1200E8B4022FA0EFC4CEA030C24FAAE
:102EF0000EF74FEA1C49B7FBF9FA1FFA8CF309FBEE
:102F00001A7720FA0EF88C400AFB03F548EA04040D
:102F10004FEA144848EA0747BD4202FA01F200FAB4
:102F200001FB09D917EB0C070AF1FF3041D2BD4272
:102F30003FD9AAF1020A67447F1BB7FBF9F509FBE9
:102F4000157705FB03F3A4B244EA0747BB4208D94F
:102F500017EB0C0705F1FF3027D2BB4225D9023D04
:102F6000674445EA0A40A0FB0289FF1A4F454546DF
:102F70004C4614D329D066B3BBEB050367EB0407BB
:102F800007FA0EFECB40CF404EEA030386E88800E6
:102F90000021BDE8F08F2346F3E61846DAE6B8EBE9
:102FA000020569EB0C040138E5E70546D9E7104650
:102FB00092E78246C0E7924678E702383A4443E710
:102FC000084604E7023B3C442AE7C345E7D33C46B6
:102FD000D1E73146BDE8F08F704700BF10B5054C12
:102FE00013462CB10A4601460220AFF3008010BD03
:102FF000204610BD0000000010B5431E0A44914257
:1030000004D011F8014B03F8014FF8E710BD034657
:103010000244934202D003F8011BFAE77047000014
:1030200038B5124B05461C68A36BD3B91820FDF7C1
:10303000F5FB43F20E33A06303804AF6CD334380A1
:1030400041F2342383804EF26D63C3804DF6EC630E
:103050000381052343810B23838101220023C0E9DF
:103060000423A36B00221D615A6138BD6800002053
:10307000034611F8012B03F8012B002AF9D1704700
:10308000024B0146186800F003B800BF680000203A
:1030900070B5064608460C4600F00DF8451C29465A
:1030A0003046FDF7DBFB064618B12A462146FFF7FE
:1030B000A3FF304670BD034613F8012B002AFBD155
:1030C000181A01387047000021000808610008083C
:1030D0008D0008089100080800000000446973741E
:1030E000616E6365204D656173757265643A200099
:1030F00064697374616E636500636F756E740074E8
:10310000696C74004C6F6767696E6720616E64203C
:10311000706F7374696E6720646174612E2E005243
:10312000657365742076616C75657320746F207AA1
:1031300065726F2E2E004C6F6767696E6720696E2F
:1031400020286D696E3A73656329003A2020002EAD
:103150002E2E7A7A7A2E2E2E0054414D5045522032
:1031600044657465637465643A20004375727265E2
:103170006E742074696C742072656164696E672076
:103180003A2000547261736820696E7365727465C9
:10319000642100436F756E7420696E63726561739C
:1031A0006564206E6F773A20000000000000000088
:1031B000000000006D0808086F0808086E616E00C6
:1031C0006F766600696E66006261756400536572B1
:1031D00069616C0055534253657269616C310074CA
:1031E00079706500706172616D00636D640069647F
:1031F00000686E64007374726D0066696C74006CB4
:10320000766C0061646448616E646C65720072651E
:103210006D6F766548616E646C657200656E756D84
:1032200048616E646C657273004A534F4E537472FA
:1032300065616D4C6F6748616E646C6572006170AA
:103240007000253031307520005D20002564002C91
:10325000200028293A2000205B00636F6465203D30
:10326000200025690064657461696C73203D20004D
:103270000D0A006C6E00666E00636F646500646525
:103280007461696C006E6F6E6500747261636500D5
:10329000696E666F007761726E006572726F7200A0
:1032A00070616E696300616C6C005A00252B3033CD
:1032B000643A253032750025592D256D2D2564542D
:1032C00025483A254D3A2553257A00617363746980
:1032D0006D6500000000000000000000911008086B
:1032E00097100808DB100808A510080893100808B4
:1032F0000000000000000000291608081916080840
:103300001B1608080000000000000000BD16080899
:103310000D1708081B170808110C0808F9160808EB
:10332000BF160808D516080807170808EB1608087E
:10333000B91608080000000000000000F71808088F
:10334000ED180808E318080855180808D7180808E1
:10335000CB180808BF180808B7180808AD180808DF
:10336000A31808085F18080800000000000000000B
:1033700031190808811908088F190808110C080864
:103380004519080867190808531908087B1908081F
:103390003319080837190808000000000000000071
:1033A0005D1A0808A71A08087F1A08085F1A080893
:1033B000871A08088F1A0808971A08089F1A080819
:1033C0000000000000000000E11A0808EB1A0808DD
:1033D000F51A0808FF1A0808091B0808151B080831
:1033E000211B08082D1B0808351B08083F1B08086F
:1033F000491B080800000000000000000000000059
:1034000000000000000000000000000000000000BC
:1034100000000000000000000000000000000000AC
:10342000000000000000000000000000000000009C
:10343000000000000000000000000000000000008C
:10344000000000000000000000000000000000007C
:10345000000000004300000085040808AD080808CB
:10346000BD0E0808CD0E0808250F08080119080828
:10347000951B08089D1C0808F91C08087D1D0808F4
:10348000011E0808C51E0808891F08080000000062
:083490005CF8FF7F0100000061
:043498000000000030
:10349C0040420F00CB32080800000000F43308084B
:1034AC001434080834340808000000000000000040
:1034BC000000000000000000543408080000000068
:1034CC0000000000000000000000000000000000F0
:1034DC0000000000000000000000000000000000E0
:1034EC0000000000000000000000000000000000D0
:0C34FC000000000000000000080000209C
:10350800FFFFFFFF00000102030405060708090A80
:103518000B0C0D0E0F101112131415161718191A7B
:083528001B1C1D1E1F202800C2
:043530007856341283
:0400000508080020C7
:00000001FF
